:020000040800F2
:100000000028002019220008750300087703000863
:10001000790300087B0300087D030008000000004E
:100020000000000000000000000000007F03000846
:100030008103000800000000830300088503000816
:100040006122000861220008612200086122000884
:100050006122000861220008612200086122000874
:100060006122000861220008612200086122000864
:100070006122000861220008612200086122000854
:100080006122000861220008612200086122000844
:100090006122000861220008612200086122000834
:1000A0006122000861220008612200086122000824
:1000B0008D03000861220008000000006122000892
:1000C000612200080000000000000000612200081A
:1000D000000000009D0300086122000800000000ED
:1000E000612200086122000861220008000000006F
:1000F0000000000000000000000000000000000000
:0C01000000000000000000005FF808F1A3
:10010C0010B5054C237833B9044B13B10448AFF345
:10011C0000800123237010BD74000020000000003B
:10012C00CC2B000808B5034B1BB103490348AFF3B4
:10013C00008008BD0000000078000020CC2B0008D7
:10014C0030B587B0002402940394049405940E4BAC
:10015C009A6942F004029A619B6903F004030193CB
:10016C00019B0A4D22462021284601F0EFF820235E
:10017C0002930123039304940223059302A92846B6
:10018C0000F0D4FF07B030BD001002400008014061
:10019C000368B3F1804F00D07047054A1388013BC8
:1001AC009BB21380002BF7D1024B01221A70F3E79C
:1001BC000C0000207301002072B6FEE700B585B07C
:1001CC0000230193029303930F48104A026083604B
:1001DC000122027303754FF46021C1614360026117
:1001EC0000F012FB60B900230193012202920393E9
:1001FC0001A9054800F082F920B905B05DF804FBAF
:10020C00FFF7DAFFFFF7D8FF900000200024014031
:10021C0008B50A480A4B03604FF416534360002399
:10022C008360C36003610C2242618361C36101F08E
:10023C0099FC00B908BDFFF7BFFF00BF0801002003
:10024C000038014000B587B0002302930393049358
:10025C0005930093019314484FF08042026041F6DD
:10026C003F72426083600922C2600361836101F0C6
:10027C00A1FA90B94FF48053029302A90A4801F0F5
:10028C00D1FA60B90023009301936946064801F046
:10029C0049FB30B907B05DF804FBFFF78DFFFFF7A2
:1002AC008BFFFFF789FF00BFC000002000B595B0A1
:1002BC00282200210DEB020001F0F2FF0023059330
:1002CC000693079308930993019302930393049362
:1002DC0002230A9301230E9310230F930AA800F014
:1002EC008BFBA8B90F230593002106910791089168
:1002FC00099105A800F0B2FD60B902230193002317
:10030C00039301A800F086FE30B915B05DF804FB2C
:10031C00FFF752FFFFF750FFFFF74EFF08B500F055
:10032C001DFBFFF7C3FFFFF70BFFFFF747FFFFF7BF
:10033C006FFFFFF787FF0A4801F018F901F0FCFE88
:10034C0001F09EFE04E001F00BFF0A2000F02AFBF6
:10035C0001F01EFF034B1B78002BF4D1F5E700BF17
:10036C00C000002073010020FEE7FEE7FEE7FEE779
:10037C00FEE770477047704708B500F001FB08BDF9
:10038C0008B5024801F026F908BD00BFC0000020E6
:10039C0008B5024801F000FD08BD00BF08010020AF
:1003AC0082B00A4B9A6942F001029A619A6902F092
:1003BC0001020092009ADA6942F08052DA61DB693C
:1003CC0003F080530193019B02B070470010024070
:1003DC0000B587B00023029303930493059302683E
:1003EC00114B9A4202D007B05DF804FB03F56C4345
:1003FC009A6942F400729A619A6902F4007200924E
:10040C00009A9A6942F004029A619B6903F0040312
:10041C000193019B012302930323039302A9034835
:10042C0000F084FEDFE700BF00240140000801401B
:10043C000368B3F1804F00D0704700B583B003F56B
:10044C000433DA6942F00102DA61DB6903F001037B
:10045C000193019B002211461C2000F0FFFF1C2081
:10046C0001F034F803B05DF804FB000030B587B040
:10047C000023029303930493059302681B4B9A4247
:10048C0001D007B030BD03F558439A6942F480425D
:10049C009A619A6902F480420092009A9A6942F039
:1004AC0004029A619B6903F004030193019B4FF4CE
:1004BC000073029302230393032305930C4D02A9AB
:1004CC00284600F033FE4FF480630293002403941B
:1004DC00049402A9284600F029FE22462146252034
:1004EC0000F0BCFF252000F0F1FFCAE70038014006
:1004FC00000801400368D86C7047000030B482B02B
:10050C000022019290F82420012A00F091800346E9
:10051C00012280F824204A68062A2DD80468606BD2
:10052C0002EB8202053A4FF01F0C0CFA02FC20EA97
:10053C000C000D6805FA02F2024362630A68092A8C
:10054C003AD91C68E06802EB42021E3A4FF0070CE5
:10055C000CFA02FC20EA0C008D6805FA02F2024348
:10056C00E2600A68103A012A36D90020002283F88A
:10057C00242002B030BC70470C2A0ED80568286BBA
:10058C0002EB8202233A1F24944020EA04000C68F8
:10059C0004FA02F202432A63D0E70568E86A02EB28
:1005AC008202413A1F24944020EA04000C6804FAA9
:1005BC0002F20243EA62C1E71C68206902EB4202C4
:1005CC004FF0070C0CFA02FC20EA0C008D6805FABF
:1005DC0002F202432261C4E71A681648824205D02F
:1005EC009A6A42F020029A620120BFE7906810F4E8
:1005FC00000F1BD1906840F4000090600A68102A2C
:10060C0001D00020B2E70C4A12680C49A1FB02127F
:10061C00920C02EB82025200019202E0019A013A22
:10062C000192019A002AF9D100209FE700209DE752
:10063C0002209EE7002401400800002083DE1B43BB
:10064C0030B583B00023019303689A6812F0010F50
:10065C0033D104469A6842F001029A60184B1B6829
:10066C00184AA2FB03239B0C019302E0019B013B64
:10067C000193019B002BF9D100F08EF905462368FC
:10068C009B6813F0010F16D100F086F9431B022B67
:10069C00F5D923689B6813F0010FF0D1A36A43F0DE
:1006AC001003A362E36A43F00103E362002384F8BE
:1006BC002430012002E0002000E0002003B030BD17
:1006CC000800002083DE1B4390F82430012B68D0F7
:1006DC0010B50446012380F82430FFF7B1FF002841
:1006EC005BD1A36A23F4407323F0010343F48073BA
:1006FC00A36223682C4A934227D0A26A22F4801268
:10070C00A2625A6812F4806F05D0A26A22F4405299
:10071C0042F48052A262A26A12F4805F2BD0E26A89
:10072C0022F00602E262002284F824206FF002021A
:10073C001A6023689A6802F46022B2F5602F1DD00B
:10074C009A6842F480129A602AE0A2F5806252689C
:10075C0012F4702FD1D0A26A42F48012A262134A12
:10076C00526812F4806FD6D0A26A22F4405242F43E
:10077C008052A262CFE70022E262D4E70A4A934297
:10078C0004D09A6842F4A0029A6009E0A2F5806253
:10079C00526812F4702FD3D1F3E7002384F824307D
:1007AC0010BD0220704700BF00280140002401400A
:1007BC0038B503689A6812F0010F01D1002038BDDA
:1007CC0004469A6822F001029A6000F0E5F80546AA
:1007DC0023689B6813F0010F13D000F0DDF8431B66
:1007EC00022BF5D923689B6813F0010FF0D0A36A94
:1007FC0043F01003A362E36A43F00103E3620120B8
:10080C00DDE70020DBE7000000287BD070B5044654
:10081C00836A002B4DD02046FFF7CAFFA36A13F062
:10082C00100369D1002867D1A26A22F4885222F001
:10083C00020242F00202A2626268E1690A43217B71
:10084C0042EA4102A568B5F5807F02D0012D36D071
:10085C001D46267D012E35D02668716821F469412C
:10086C00294371602568AE68274931401143A9605E
:10087C00A168B1F5807F01D0012902D12369013B28
:10088C001B052568E96A21F470010B43EB622368B0
:10089C0099681E4B0B409A4225D0A36A23F0120391
:1008AC0043F01003A362E36A43F00103E362012007
:1008BC0027E0C36280F82430FFF78AFDABE74FF4E2
:1008CC008075C6E731B9A169013945EA413141F476
:1008DC000065C1E7A16A41F02001A162E16A41F023
:1008EC000101E162B8E70023E362A36A23F003038A
:1008FC0043F00103A36204E0A36A43F01003A36274
:10090C00012070BD01207047FDF7E1FFFE0E1FFFB7
:10091C0010B504460E4B18784FF47A73B3FBF0F312
:10092C000C4A1068B0FBF3F000F0DEFD68B90F2C38
:10093C0001D901200AE0002221464FF0FF3000F0DF
:10094C008DFD054B1C60002000E0012010BD00BF98
:10095C0000000020080000200400002008B5074A11
:10096C00136843F010031360032000F065FD0F20A3
:10097C00FFF7CEFFFFF714FD002008BD002002405A
:10098C00034A1168034B1B780B441360704700BF7C
:10099C005001002000000020014B1868704700BF78
:1009AC005001002038B50446FFF7F6FF0546B4F1B8
:1009BC00FF3F02D0044B1B781C44FFF7EDFF401B9C
:1009CC00A042FAD338BD00BF0000002082B0084B13
:1009DC001B68084AA2FB03235B0A00FB03F3019389
:1009EC0000BF019B5A1E0192002BF9D102B0704737
:1009FC0008000020D34D6210002800F0F18170B582
:100A0C0082B00446036813F0010F2CD0994B5B683D
:100A1C0003F00C03042B1DD0964B5B6803F00C0306
:100A2C00082B12D06368B3F5803F41D0002B55D111
:100A3C0003F1804303F504331A6822F480321A6000
:100A4C001A6822F480221A6037E08A4B5B6813F430
:100A5C00803FE7D0874B1B6813F4003F03D06368DB
:100A6C00002B00F0BF81236813F0020F75D0814B6F
:100A7C005B6813F00C0F5FD07E4B5B6803F00C03CC
:100A8C00082B54D02369002B00F08A807A4B01226A
:100A9C001A60FFF781FF0546764B1B6813F0020FB7
:100AAC0075D1FFF779FF401B0228F5D903209EE191
:100ABC00704A136843F480331360636843B3FFF7E1
:100ACC006BFF05466B4B1B6813F4003FCBD1FFF754
:100ADC0063FF401B6428F5D9032088E1B3F5A02FF0
:100AEC0009D0644B1A6822F480321A601A6822F416
:100AFC0080221A60E1E703F18043A3F53C331A68C6
:100B0C0042F480221A601A6842F480321A60D4E7E8
:100B1C00FFF742FF0546574B1B6813F4003FA2D06A
:100B2C00FFF73AFF401B6428F5D903205FE1514BD6
:100B3C005B6813F4803FA5D14E4B1B6813F0020F7A
:100B4C0003D02369012B40F04F814A4A136823F0EC
:100B5C00F803616943EAC1031360236813F0080FBB
:100B6C0033D0A369002B5CD0434B0122C3F8802403
:100B7C00FFF712FF05463F4B5B6A13F0020F21D1C2
:100B8C00FFF70AFF401B0228F5D903202FE1394A51
:100B9C00136823F0F803616943EAC1031360DCE7CF
:100BAC00354B00221A60FFF7F7FE0546314B1B68E8
:100BBC0013F0020FD1D0FFF7EFFE401B0228F5D93E
:100BCC00032014E10120FFF701FF236813F0040F49
:100BDC0000F09680274BDB6913F0805F34D1254BF6
:100BEC00DA6942F08052DA61DB6903F080530193D9
:100BFC00019B0125214B1B6813F4807F26D0E368F1
:100C0C00012B3DD0002B53D103F1804303F504336A
:100C1C001A6A22F001021A621A6A22F004021A629B
:100C2C0033E0154B0022C3F88024FFF7B5FE0546D0
:100C3C00104B5B6A13F0020FC7D0FFF7ADFE401BE1
:100C4C000228F5D90320D2E00025D3E70B4A13681C
:100C5C0043F480731360FFF79FFE0646074B1B6837
:100C6C0013F4807FCBD1FFF797FE801B6428F5D956
:100C7C000320BCE000100240000042420070004023
:100C8C005F4A136A43F001031362E36833B3FFF75F
:100C9C0083FE06465A4B1B6A13F0020F2FD1FFF747
:100CAC007BFE801B41F288339842F3D903209EE0EF
:100CBC00052B09D0524B1A6A22F001021A621A6AE9
:100CCC0022F004021A62E0E74D4B1A6A42F0040269
:100CDC001A621A6A42F001021A62D6E7FFF75CFE4A
:100CEC000646474B1B6A13F0020F08D0FFF754FE61
:100CFC00801B41F288339842F3D9032077E0E5B9A1
:100D0C00E369002B72D03E4A526802F00C02082AAA
:100D1C0056D0022B17D03B4B00221A66FFF73CFE35
:100D2C000446374B1B6813F0007F47D0FFF734FEA7
:100D3C00001B0228F5D9032059E0314AD36923F06E
:100D4C008053D361DCE72F4B00221A66FFF724FE99
:100D5C0005462B4B1B6813F0007F06D0FFF71CFEDB
:100D6C00401B0228F5D9032041E0236AB3F5803FEC
:100D7C001AD023494B6823F47413226A606A024325
:100D8C0013434B601F4B01221A66FFF705FE044606
:100D9C001B4B1B6813F0007F0ED1FFF7FDFD001BF2
:100DAC000228F5D9032022E0154A536823F40033B6
:100DBC00A1680B435360DCE7002018E0002016E02C
:100DCC00012B16D00E4B5B6803F48031226A9142E2
:100DDC0011D103F47013626A93420ED1002006E025
:100DEC0001207047012002E0012000E0002002B049
:100DFC0070BD0120FBE70120F9E70120F7E700BFF8
:100E0C0000100240000042420F4B5B6803F00C02E2
:100E1C00082A01D00D487047C3F383420C49885C03
:100E2C0013F4803F0BD0084B5B68C3F34043094A73
:100E3C00D35C064A02FB00F0B0FBF3F07047064BA4
:100E4C0003FB00F0704700BF0010024000127A0054
:100E5C00E42B0008F42B000800093D00002800F0EA
:100E6C00A08070B50D460446524B1B6803F0070377
:100E7C008B420BD24F4A136823F007030B431360CA
:100E8C00136803F007038B4240F08D80236813F046
:100E9C00020F17D013F0040F04D0474A536843F4E1
:100EAC00E0635360236813F0080F04D0424A536880
:100EBC0043F460535360404A536823F0F003A16835
:100ECC000B435360236813F0010F31D06368012B7F
:100EDC0020D0022B25D0384A126812F0020F64D0B1
:100EEC0035494A6822F0030213434B60FFF754FD67
:100EFC000646314B5B6803F00C036268B3EB820F60
:100F0C0016D0FFF749FD801B41F288339842F0D987
:100F1C00032045E0284A126812F4003FE0D101207A
:100F2C003EE0254A126812F0007FD9D1012037E04B
:100F3C00204B1B6803F00703AB420AD91D4A136808
:100F4C0023F007032B431360136803F00703AB4232
:100F5C002DD1236813F0040F06D0174A536823F4DD
:100F6C00E063E1680B435360236813F0080F07D06C
:100F7C00114A536823F46053216943EAC103536057
:100F8C00FFF742FF0C4B5B68C3F303130B4AD35CB4
:100F9C00D8400B4B18600B4B1868FFF7B9FC0020BE
:100FAC0070BD012070470120FAE70120F8E701200D
:100FBC00F6E700BF0020024000100240F82B0008AA
:100FCC000800002004000020014B1868704700BF87
:100FDC000800002008B5FFF7F7FF044B5B68C3F36C
:100FEC000223034AD35CD84008BD00BF0010024066
:100FFC00082C000808B5FFF7E7FF044B5B68C3F348
:10100C00C223034AD35CD84008BD00BF0010024085
:10101C00082C000870B582B00446036813F0010F69
:10102C0036D03F4BDB6913F0805F49D13C4BDA691A
:10103C0042F08052DA61DB6903F080530193019B2B
:10104C000125384B1B6813F4807F3BD0344B1B6A53
:10105C0013F4407313D0626802F440729A420ED0BB
:10106C002F4A136A23F440702F490126C1F84064BB
:10107C000026C1F84064106213F0010F36D1284AE3
:10108C00136A23F4407361680B431362002D3ED145
:10109C00236813F0020F06D0214A536823F440430F
:1010AC00A1680B435360236813F0100F34D01C4A13
:1010BC00536823F48003E1680B43536000202CE059
:1010CC000025BEE7174A136843F480731360FFF7DB
:1010DC0063FC0646134B1B6813F4807FB6D1FFF7F5
:1010EC005BFC801B6428F5D9032016E0FFF754FC49
:1010FC0006460B4B1B6A13F0020FC0D1FFF74CFCDA
:10110C00801B41F288339842F3D9032005E0D36960
:10111C0023F08053D361BBE7002002B070BD00BF49
:10112C0000100240007000400000424270B582B0D6
:10113C000024A4468BE07F4DAA4210D007D97E4DE7
:10114C00AA420CD005F58035AA4208D015E0A5F5C9
:10115C008015AA4203D005F57025AA4209D18A68E8
:10116C00002A00F0BF80012A00F0B78043610824F8
:10117C0003E0A5F58015AA42F1D0BEF1FF0F00F2F5
:10118C00B3800646BEF1FF0F00F2B0804FEA8C022E
:10119C0033680F25954023EA050304FA02F2134342
:1011AC0033604B6813F0805F4FD0644B9A6942F008
:1011BC0001029A619B6903F001030193019B4FEAC1
:1011CC009C02951C5E4B53F825600CF003039D00AC
:1011DC000F23AB4026EA03065A4B984200F08C8052
:1011EC0003F58063984200F0898003F58063984290
:1011FC0000F080800323AB4033430232504D45F85E
:10120C0022304B6813F4801F7AD04F4A936843EA1C
:10121C000E0393604B6813F4001F77D04A4AD368CF
:10122C0043EA0E03D3604B6813F4003F74D0464A74
:10123C00536843EA0E0353604B6813F4803F71D03C
:10124C00414A136843EA0E0313600CF1010C0A685F
:10125C0032FA0CF36CD0012303FA0CF302EA030EFE
:10126C0033EA0202F1D14A68122A3FF664AF122A1D
:10127C0083D801A555F822F06B110008D112000893
:10128C00DB120008ED120008871100088711000816
:10129C0087110008871100088711000887110008C2
:1012AC0087110008871100088711000887110008B2
:1012BC00871100088711000887110008D512000853
:1012CC00E1120008CC6858E7CC68043455E7CC68C8
:1012DC00083452E7CC680C344FE7036108244CE720
:1012EC0000244AE7042448E7061D4BE7ACF108024A
:1012FC0092004DE702237EE700237CE701237AE787
:10130C00114A936823EA0E03936083E70E4AD3686D
:10131C0023EA0E03D36086E70B4A536823EA0E03D5
:10132C00536089E7084A136823EA0E0313608CE7BD
:10133C0002B070BD000022100000311000100240FD
:10134C000000014000080140000401400AB10161A5
:10135C00704709040161704790F82130DBB2022B11
:10136C0006D004238363002380F8203001207047CB
:10137C000268136823F00E0313600268136823F0ED
:10138C0001031360036CC16B012202FA03F34B607F
:10139C0080F82120002380F8203018467047000088
:1013AC0008B590F82130DBB2022B03D00423836301
:1013BC00012008BD0268136823F00E031360026855
:1013CC00136823F0010313600368194A934214D085
:1013DC00143293421FD0143293421ED014329342D3
:1013EC001ED0143293421ED01432934202D04FF0CE
:1013FC00807203E04FF4801200E001220D4B5A6022
:10140C00012380F82130002380F82030436B6BB12E
:10141C0098470020CDE71022F0E74FF48072EDE7FB
:10142C004FF48052EAE74FF48032E7E70020C0E740
:10143C000800024000000240074AD36823F4E0632E
:10144C001B041B0C000200F4E060034343F0BF6379
:10145C0043F40033D360704700ED00E000B5194B46
:10146C00DB68C3F30223C3F1070CBCF1040F28BFE4
:10147C004FF0040C03F1040EBEF1060F18D9033B18
:10148C004FF0FF3E0EFA0CFC21EA0C0199400EFACB
:10149C0003F322EA0303194300280BDB0901C9B249
:1014AC0000F1604000F5614080F800135DF804FB2A
:1014BC000023E5E700F00F000901C9B2024B1954F3
:1014CC00F4E700BF00ED00E014ED00E0002807DBBE
:1014DC0000F01F02400901239340024A42F82030D9
:1014EC00704700BF00E100E00138B0F1807F0BD203
:1014FC004FF0E0235861054AF02182F823100020B8
:10150C00986107221A6170470120704700ED00E0D6
:10151C0010B4036A046A24F001040462846924F0A0
:10152C00F00C4CEA021223F00A030B4382610362B3
:10153C0010BC704710B4036A046A24F010040462EF
:10154C00846924F4704C4CEA023223F0A00343EA81
:10155C0001138261036210BC7047836823F070032F
:10156C000B4343F0070383607047000090F83D3055
:10157C00DBB2012B23D1022380F83D300268D36803
:10158C0043F00103D36003680F4A93420CD0B3F1CC
:10159C00804F09D0A2F59432934205D01A6842F0DC
:1015AC0001021A60002070479A6802F00702062AAE
:1015BC0007D01A6842F001021A600020704701201F
:1015CC0070470020704700BF002C014070477047E7
:1015DC007047704710B5044603681A6912F0020F81
:1015EC0011D0DA6812F0020F0DD06FF002021A61FE
:1015FC000123037703689B6913F0030F70D0FFF787
:10160C00E6FF0023237723681A6912F0040F12D027
:10161C00DA6812F0040F0ED06FF004021A61022384
:10162C00237723689B6913F4407F5FD02046FFF734
:10163C00CEFF0023237723681A6912F0080F12D00B
:10164C00DA6812F0080F0ED06FF008021A6104234A
:10165C0023772368DB6913F0030F4ED02046FFF786
:10166C00B6FF0023237723681A6912F0100F12D0EB
:10167C00DA6812F0100F0ED06FF010021A61082306
:10168C0023772368DB6913F4407F3DD02046FFF7B6
:10169C009EFF0023237723681A6912F0010F03D0F1
:1016AC00DA6812F0010F36D123681A6912F0800F34
:1016BC0003D0DA6812F0800F34D123681A6912F063
:1016CC00400F03D0DA6812F0400F32D123681A6948
:1016DC0012F0200F03D0DA6812F0200F30D110BDB9
:1016EC00FFF774FF2046FFF773FF8AE72046FFF7EA
:1016FC006DFF2046FFF76CFF9BE72046FFF766FF68
:10170C002046FFF765FFACE72046FFF75FFF20465A
:10171C00FFF75EFFBDE76FF001021A612046FEF78E
:10172C0037FDC1E76FF080021A61204600F02DF9F9
:10173C00C3E76FF040021A612046FFF74AFFC5E786
:10174C006FF020021A61204600F01EF9C7E7000076
:10175C000368174A904206D0B0F1804F03D0A2F52F
:10176C009432904203D123F070034A681343104A19
:10177C00904206D0B0F1804F03D0A2F59432904243
:10178C0003D123F44073CA68134323F080034A69DE
:10179C00134303608B68C3620B688362044B9842EB
:1017AC0002D00123436170470B690363F9E700BF63
:1017BC00002C014040B310B5044690F83D30F3B115
:1017CC00022384F83D30214651F8040BFFF7C0FF8B
:1017DC00012384F8463084F83E3084F83F3084F896
:1017EC00403084F8413084F8423084F8433084F837
:1017FC00443084F8453084F83D30002010BD80F82A
:10180C003C30FEF715FEDBE70120704710B484680E
:10181C0024F47F4C42EA03220A4342EA0C0282601F
:10182C0010BC704790F83C30012B78D010B50446B2
:10183C00012380F83C30022380F83D300268936825
:10184C0023F47F4323F0770393600B68602B4CD019
:10185C0029D8402B54D00CD9502B22D1CA684968B6
:10186C000068FFF755FE50212068FFF776FE002038
:10187C0005E0202B0DD009D9302B0AD001200123F3
:10188C0084F83D30002384F83C3010BD0BB1102B94
:10189C0005D119462068FFF760FE0020EFE7012014
:1018AC00EDE70120EBE7B3F5805F34D0B3F5005FD3
:1018BC000CD1CB684A6889680068FFF7A7FF2268DB
:1018CC00936843F4804393600020D8E7702B24D1B5
:1018DC00CB684A6889680068FFF798FF22689368AC
:1018EC0043F0770393600020C9E7CA684968006831
:1018FC00FFF720FE60212068FFF72FFE0020BEE7D7
:10190C00CA6849680068FFF703FE40212068FFF7AA
:10191C0024FE0020B3E70020B1E70120AFE702204E
:10192C007047000090F83C30012B28D010B40123F4
:10193C0080F83C30022380F83D3003685A689C687C
:10194C0022F0700C0A6842EA0C025A6003680D4AD5
:10195C00934206D0B3F1804F03D0A2F59432934258
:10196C0004D124F080044A6814439C60012380F85D
:10197C003D30002380F83C30184610BC70470220E4
:10198C00704700BF002C014070477047026802F19D
:10199C000C0353E8003F23F490730C3242E80031FF
:1019AC000029F3D1026802F1140353E8003F23F03D
:1019BC000103143242E800310029F3D1036B012BEF
:1019CC0005D0202380F8423000230363704702685F
:1019DC0002F10C0353E8003F23F010030C3242E8F1
:1019EC0000310029F3D1ECE790F84130DBB2212B28
:1019FC0001D0022070478368B3F5805F17D0036A6B
:101A0C005A1C02621A7803685A60C38C9BB2013B61
:101A1C009BB2C3844BB90268D36823F08003D360B4
:101A2C000268D36843F04003D36000207047036919
:101A3C00002BE4D1036A1B880268C3F308035360CC
:101A4C00036A02330362E0E710B5044602681369C7
:101A5C0023F44053C1680B43136183680269134339
:101A6C0042691A430168CB6823F4B05323F00C038A
:101A7C001343CB600268536923F4407381690B43B1
:101A8C0053610268134B9A4220D0FFF7A3FA024627
:101A9C0002EB820202EB820263689B00B2FBF3F260
:101AAC000D48A0FB02314909642303FB11231B01E0
:101ABC003233A0FB03235B0903F0F00202EB0112AB
:101ACC0003F00F03216813448B6010BDFFF792FAEB
:101ADC000246DDE7003801401F85EB512DE9F84344
:101AEC0005460F4616469946DDF820802C6824687A
:101AFC0037EA04030CBF4FF0010C4FF0000CB44557
:101B0C002DD1B8F1FF3FF1D0B8F1000F05D0FEF7A1
:101B1C0043FFA0EB09004045E8D92A6802F10C0309
:101B2C0053E8003F23F4D0730C3242E80031002913
:101B3C00F3D12A6802F1140353E8003F23F00103A8
:101B4C00143242E800310029F3D1202385F84130CA
:101B5C0085F84230002385F84030032000E0002057
:101B6C00BDE8F88360B310B5044690F8413013B368
:101B7C00242384F841302268D36823F40053D360C3
:101B8C002046FFF761FF2268136923F49043136129
:101B9C002268536923F02A0353612268D36843F403
:101BAC000053D36000206064202384F8413084F813
:101BBC004230606310BD80F84030FEF757FCD7E729
:101BCC00012070472DE9F04182B01E4690F841305B
:101BDC00DBB2202B4BD104460D46904600294AD04F
:101BEC000AB9012044E000234364212380F84130EA
:101BFC00FEF7D2FE0746A4F82480A4F82680A3683A
:101C0C00B3F5805F02D04FF000080FE02369FBB101
:101C1C004FF000080AE038F8023B2268C3F30803CF
:101C2C005360E28C92B2013A92B2E284E38C9BB2A2
:101C3C008BB100963B46002280212046FFF74EFFD9
:101C4C00D8B9002DE7D015F8012B23685A60E8E7C6
:101C5C00A8460025EAE700963B4600224021204694
:101C6C00FFF73CFF58B9202384F8413000E00220F4
:101C7C0002B0BDE8F0810120FAE70320F8E7032069
:101C8C00F6E7704708B50168CA6822F04002CA60DE
:101C9C00202280F84120FFF7F4FF002008BD704798
:101CAC0008B5406A0023C385C384FFF7F8FF08BD5D
:101CBC00704790F84230DBB2222B69D18368B3F5C0
:101CCC00805F4FD0826AB3F5805F04D0002B56D171
:101CDC000369002B53D103685B681370836A01336B
:101CEC008362C38D9BB2013B9BB2C385002B51D148
:101CFC0000B583B00268D36823F02003D360026878
:101D0C00D36823F48073D3600268536923F0010312
:101D1C005361202380F8423000234363036B012B73
:101D2C0033D100230363026802F10C0353E8003F34
:101D3C0023F010030C3242E800310029F3D1036880
:101D4C001A6812F0100F06D0002201921A68019244
:101D5C005B680193019B818DFFF7AAFF002003B004
:101D6C005DF804FB0269002AACD1826A03685B68E7
:101D7C00C3F308031380836A02338362B1E70368F9
:101D8C005B6803F07F031370A8E700F09BF9E5E7AD
:101D9C00022070470020704730B583B004460268BB
:101DAC001368D068516913F00F0505D113F0200F9B
:101DBC0002D010F0200F19D12DB111F0010119D161
:101DCC0010F4907F16D1216B01297DD013F0800F78
:101DDC0003D010F0800F40F0188113F0400F03D0A7
:101DEC0010F0400F40F0158103B030BD2046FFF7D6
:101DFC0060FFF9E713F0010F06D010F4807F03D0D9
:101E0C00626C42F00102626413F0040F04D019B149
:101E1C00626C42F00202626413F0020F04D019B13A
:101E2C00626C42F00402626413F0080F07D010F0E9
:101E3C00200F00D119B1626C42F008026264626C2E
:101E4C00002AD1D013F0200F02D010F0200F29D18E
:101E5C0023685B6903F04003626C12F0080F00D139
:101E6C0063B32046FFF792FD23685B6913F0400FC4
:101E7C0020D0226802F1140353E8003F23F0400302
:101E8C00143242E800310029F3D1E36B73B1634A99
:101E9C005A63E06BFFF784FA0028A5D0E06B436B24
:101EAC009847A1E72046FFF704FFD1E72046FFF74C
:101EBC00F6FE99E72046FFF7F2FE95E72046FFF77E
:101ECC00EEFE002363648FE713F0100F3FF47EAF38
:101EDC0010F0100F3FF47AAF0023019313680193B5
:101EEC0053680193019B536913F0400F51D0E26B7F
:101EFC0013685B689BB2002B3FF476AFA18D9942BF
:101F0C007FF672AFE3859369202B37D0226802F1FC
:101F1C000C0353E8003F23F480730C3242E8003189
:101F2C000029F3D1226802F1140353E8003F23F097
:101F3C000103143242E800310029F3D1226802F186
:101F4C00140353E8003F23F04003143242E80031FD
:101F5C000029F3D1202384F8423000232363226824
:101F6C0002F10C0353E8003F23F010030C3242E85B
:101F7C0000310029F3D1E06BFFF7EEF90223636324
:101F8C00A18DE38D9BB2C91A89B22046FFF790FE52
:101F9C002AE7A18DE38D9BB2C91A89B2E38D9BB25E
:101FAC00002B3FF421AF00293FF41EAF226802F151
:101FBC000C0353E8003F23F490730C3242E80030DA
:101FCC000028F3D1226802F1140353E8003F23F0F8
:101FDC000103143242E800300028F3D1202384F8A6
:101FEC00423000232363226802F10C0353E8003FC4
:101FFC0023F010030C3242E800300028F3D1022306
:10200C0063632046FFF754FEEEE62046FFF7ECFC38
:10201C00EAE62046FFF736FEE6E600BFAD1C0008F8
:10202C0081628285C28500234364222380F842307A
:10203C00036923B10268D36843F48073D3600268E8
:10204C00536943F0010353610268D36843F02003E2
:10205C00D3600020704708B590F84230DBB2202BDB
:10206C0008D149B10AB9012008BD00230363FFF769
:10207C00D7FFF9E70220F7E70120F5E770470000EA
:10208C0008B5012202490348FFF7E5FF08BD00BF70
:10209C00750100200801002000B589B002460749EF
:1020AC00684600F005F94FF47A7382B26946044829
:1020BC00FFF788FD09B05DF804FB00BF102C000889
:1020CC000801002008B50268144B9A4200D008BDE4
:1020DC00134B1A78212A10D0232A15D011490B78CA
:1020EC001148C2540133DBB20B701E2B13D00122EA
:1020FC000B490E48FFF7AFFFE9E70A4B00211970B7
:10210C000B4B01211970E9E7094B00211970094BA0
:10211C0001211970E2E700220A70E8E7003801405B
:10212C0075010020720100205401002008010020DC
:10213C00740100207301002008B50248FEF7C4FAB0
:10214C0008BD00BF9000002008B50348FEF7D2F987
:10215C00024B186008BD00BF9000002078010020E1
:10216C0008B5084B1B7803B908BDFFF7EDFFFFF767
:10217C0093FF054B4FF496721A80044B00221A7091
:10218C00F2E700BF7C0100200C000020730100204E
:10219C001A4B187848B31A4B5B786F2B1ED00DD89E
:1021AC004F2B1BD0522B07D1154B9B78532B09D09F
:1021BC00732B07D00020704700207047722BF3D090
:1021CC00002070470E4BDB78542B03D0742B01D0BE
:1021DC000020704701200B4B18707047084B9B7800
:1021EC004B2B03D06B2B01D0002070470023054AEA
:1021FC001370054A13700120704700BF7401002052
:10220C00540100207C01002073010020FFF736FFF1
:10221C000B480C490C4A002302E0D458C450043338
:10222C00C4188C42F9D3094A094C002301E013600D
:10223C000432A242FBD300F00FF8FEF76FF87047A0
:10224C000000002074000020582C000874000020AE
:10225C0094010020FEE7000070B500260C4D0D4CDB
:10226C00641BA410A64209D100F0AAFC00260A4D5A
:10227C000A4C641BA410A64205D170BD55F8043B52
:10228C0098470136EEE755F8043B98470136F2E7DC
:10229C00502C0008502C0008502C0008542C00081E
:1022AC0003460244934200D1704703F8011BF9E73F
:1022BC000EB46FF0004100B59CB01DAB02900690BF
:1022CC00079104910848094953F8042B05910068BB
:1022DC0002A9019300F068F80022029B1A701CB04E
:1022EC005DF804EB03B07047100000200802FFFFFC
:1022FC002DE9F0478E6882469E420C4690461F465A
:10230C0038D88A8912F4906F32D025680969013364
:10231C00A5EB010965694B4405EB450505EBD57546
:10232C006D109D4238BF1D46530531D5294600F02E
:10233C006FFB064650B90C234FF0FF30CAF8003043
:10234C00A38943F04003A381BDE8F0874A46216985
:10235C0000F0CEFAA38923F4906343F08003A381A9
:10236C0026614E4426603E466561A5EB0905A560D5
:10237C00BE4200D93E4632464146206800F0C6FABD
:10238C00A36800209B1BA360236833442360DBE716
:10239C002A4600F0B1FB06460028E1D150462169DF
:1023AC0000F0CEFAC7E700002DE9F04F98468B8974
:1023BC0007461B060D4614469DB00ED50B6963B936
:1023CC00402100F025FB2860286120B90C233B60DC
:1023DC004FF0FF30D1E040236B61002309932023A1
:1023EC008DF8293030234FF00109CDF80C80DFF83F
:1023FC00A4818DF82A3023469A4613F8012B0AB192
:10240C00252AF9D1BAEB040B0BD05B4622462946A0
:10241C003846FFF76DFF013000F0AA80099A5A4444
:10242C0009929AF80030002B00F0A28000234FF0A4
:10243C00FF32CDE905230AF1010A049307938DF8C5
:10244C0053301A935446052214F8011B514800F0DE
:10245C0041FA049AD8B9D00644BF20238DF85330E2
:10246C00110744BF2B238DF853309AF800302A2BD8
:10247C0015D0544600204FF00A0C079A214611F84B
:10248C00013B303B092B4ED9B0B1079214E0A0EBC5
:10249C00080309FA03F31343A2460493D2E7039B00
:1024AC00191D1B680391002BBBBF5B4242F002025B
:1024BC0007930793B8BF049223782E2B0CD1637823
:1024CC002A2B35D1039B02341A1D1B680392002B57
:1024DC00B8BF4FF0FF330593DFF8BCA00322504682
:1024EC00217800F0F7F940B14023A0EB0A0003FA81
:1024FC0000F0049B01340343049314F8011B0622DF
:10250C0026488DF8281000F0E5F9002838D0244B27
:10251C001BBB039B073323F0070308330393099B6F
:10252C003344099367E70C4601200CFB0232A5E704
:10253C0000234FF00A0C194601340593204610F87D
:10254C00012B303A092A03D9002BC5D00591C3E7DA
:10255C00044601230CFB0121F0E703AB00932A4650
:10256C003846104B04A9AFF30080421C0646D6D166
:10257C00AB895B063FF52CAF09981DB0BDE8F08F19
:10258C0003AB00932A463846064B04A900F07CF8AE
:10259C00EBE700BF1C2C0008222C0008262C00089E
:1025AC0000000000FD2200082DE9F0471646994670
:1025BC008A680B6907469342B8BF1346336091F89B
:1025CC0043200C46DDF820800AB1013333602368C8
:1025DC00990642BF336802333360256815F006054F
:1025EC0006D104F1190AE36832689B1AAB4228DC65
:1025FC0094F84320131E226818BF012392062DD491
:10260C004946384604F14302C047013020D02368C4
:10261C00E56803F00603042B18BF002532684FF061
:10262C000006A36808BFAD1A226908BF25EAE57544
:10263C009342C4BF9B1AED181A34B5421AD100202C
:10264C0008E00123524649463846C047013003D1C1
:10265C004FF0FF30BDE8F0870135C4E73020E118BA
:10266C0081F843005A1C94F845102244023382F836
:10267C004310C5E70123224649463846C04701307E
:10268C00E6D00136D9E700002DE9FF470F7E9146D1
:10269C00782F80460C469A460C9D01F1430207D8D0
:1026AC00622F0AD8002F00F0D980582F00F0A48098
:1026BC0004F1420584F842703AE0A7F16303152B4C
:1026CC00F6D801A151F823F02D2700084127000866
:1026DC00BD260008BD260008BD260008BD26000842
:1026EC0041270008BD260008BD260008BD260008AD
:1026FC00BD2600084F280008712700083128000863
:10270C00BD260008BD26000871280008BD2600085B
:10271C0071270008BD260008BD26000839280008CE
:10272C002B681A1D1B682A6004F1420584F842309C
:10273C000123A4E020682968060601F104030AD5E8
:10274C000E682B60002E03DA2D23764284F843307A
:10275C000A235E4819E00E6810F0400F2B6018BF7A
:10276C0036B2EFE72B682068191D2960010601D5E8
:10277C001E6802E04606FBD51E886F2F0CBF08238F
:10278C000A235248002184F843106568002DA8BF25
:10279C002168A560A4BF21F0040121600EB9002DB1
:1027AC004DD01546B6FBF3F103FB1167C75D05F879
:1027BC00017D3746BB420E46F4D9082B0BD123685A
:1027CC00DE0708D5236961689942DEBF302305F81E
:1027DC00013C05F1FF35521B22614B462146404618
:1027EC00CDF800A003AAFFF7DFFE01304CD14FF06B
:1027FC00FF3004B0BDE8F087344881F84570296893
:10280C00236851F8046B29601D0614D5DF0744BFFB
:10281C0043F0200323601EB9236823F020032360B8
:10282C001023AFE7236843F0200323607823284864
:10283C0084F84530E3E7590648BFB6B2E6E71546DB
:10284C00BBE72B682668181D6169286035061B6874
:10285C0001D5196002E07006FBD5198000231546DE
:10286C002361BAE72B6800211A1D2A601D68626873
:10287C00284600F02FF808B1401B606063682361A4
:10288C00002384F84330A8E72A464946404623698A
:10289C00D0470130ABD023689B0713D4E068039B6F
:1028AC009842B8BF1846A4E7012332464946404631
:1028BC00D04701309BD00135E36803995B1AAB42DA
:1028CC00F2DCEBE7002504F11906F5E72D2C0008E6
:1028DC003E2C0008034610B5C9B202449342184678
:1028EC0001D1002003E0047801338C42F6D110BDF5
:1028FC000A44914200F1FF3300D1704710B511F832
:10290C00014B914203F8014FF9D110BD884210B52B
:10291C0001EB020402D98442234607D8431EA1428C
:10292C0008D011F8012B03F8012FF8E701460244F7
:10293C008A4200D110BD13F8014D02F8014DF7E7A2
:10294C0038B50546002940D051F8043C0C1F002B2B
:10295C00B8BFE41800F010F91C4A136833B963606F
:10296C0014602846BDE8384000F00CB9A34208D9E1
:10297C00206821188B4201BF19685B680918216017
:10298C00EDE71A465B680BB1A342FAD911685018EF
:10299C00A0420BD120680144501883421160E0D151
:1029AC0018685B68014411605360DAE702D90C23A4
:1029BC002B60D6E7206821188B4201BF19685B6831
:1029CC000918216063605460CBE738BD800100209A
:1029DC0070B50E4E0C463168054611B900F0BCF8C6
:1029EC0030602146284600F0B7F8431C0AD0C41CBE
:1029FC0024F00304A04207D0211A284600F0ACF8BA
:102A0C00013001D14FF0FF34204670BD840100200D
:102A1C002DE9F041CD1C25F0030508350C2D38BFF0
:102A2C000C25002D074601DBA94205D90C230026F5
:102A3C003B603046BDE8F0812E4E00F09DF83368C7
:102A4C001C4634BB29463846FFF7C2FF431C0446DC
:102A5C004DD134682646002E40D123683146384685
:102A6C0004EB030800F078F880453AD1216803356F
:102A7C006D1A25F0030508350C2D38BF0C2538468A
:102A8C002946FFF7A5FF01302BD023682B44236088
:102A9C000EE02268521B1ED40B2A16D96119A342D0
:102AAC00256018BF5960636808BF316062514B6084
:102ABC00384604F10B0600F065F826F00706231DD6
:102ACC00F21AB6D09B1BA350B3E76268A3420CBFAB
:102ADC0032605A60ECE723466468B2E734467668A5
:102AEC00B9E70C2338463B6000F04CF8A1E72560B1
:102AFC00DEE700BF800100202DE9F041804614463E
:102B0C000E4621B91146BDE8F041FFF781BF2AB945
:102B1C00FFF716FF25462846BDE8F08100F038F88F
:102B2C008442074602D8B4EB500F12D821464046D7
:102B3C00FFF76EFF05460028EDD0BC422246314619
:102B4C0028BF3A46FFF7D4FE31464046FFF7F8FE61
:102B5C00E1E73546DFE7000038B50023054D0446B4
:102B6C0008462B6000F01EF8431C02D12B6803B101
:102B7C00236038BD88010020014800F011B800BF67
:102B8C008C010020014800F00CB800BF8C01002023
:102B9C0051F8043C181F002BBCBF0B58C0187047D1
:102BAC0070477047044A05491368002B08BF0B4651
:102BBC0018441060184670479001002098010020BE
:102BCC00F8B500BFF8BC08BC9E467047F8B500BF0E
:082BDC00F8BC08BC9E467047DE
:102BE40002030405060708090A0B0C0D0E0F10104A
:102BF40001020000000000000000000001020304C4
:102C04000607080900000000010203040A214144E8
:102C1400433D256C64230A00232D302B2000686C6F
:102C24004C006566674546470030313233343536EB
:102C34003738394142434445460030313233343524
:0C2C440036373839616263646566000051
:042C50003101000846
:042C54000D01000866
:102C580001000000100000000024F4002C01000016
:102C68001400002000000000000000000000000028
:102C7800000000000000000000000000000000004C
:102C8800000000000000000000000000000000003C
:102C9800000000000000000000000000000000002C
:102CA800000000000000000000000000000000001C
:102CB800000000000000000000000000000000000C
:042CC8000000000008
:0400000508002219B4
:00000001FF
